{
  "_format": "hh-sol-artifact-1",
  "contractName": "LandSaleEscrow",
  "sourceName": "contracts/LandSaleEscrow.sol",
  "abi": [
    {
      "inputs": [],
      "stateMutability": "nonpayable",
      "type": "constructor"
    },
    {
      "anonymous": false,
      "inputs": [
        {
          "indexed": false,
          "internalType": "uint256",
          "name": "landId",
          "type": "uint256"
        },
        {
          "indexed": false,
          "internalType": "uint256",
          "name": "price",
          "type": "uint256"
        }
      ],
      "name": "LandListed",
      "type": "event"
    },
    {
      "anonymous": false,
      "inputs": [
        {
          "indexed": false,
          "internalType": "uint256",
          "name": "landId",
          "type": "uint256"
        },
        {
          "indexed": false,
          "internalType": "address",
          "name": "owner",
          "type": "address"
        },
        {
          "indexed": false,
          "internalType": "string",
          "name": "location",
          "type": "string"
        }
      ],
      "name": "LandRegistered",
      "type": "event"
    },
    {
      "anonymous": false,
      "inputs": [
        {
          "indexed": false,
          "internalType": "uint256",
          "name": "landId",
          "type": "uint256"
        },
        {
          "indexed": false,
          "internalType": "address",
          "name": "oldOwner",
          "type": "address"
        },
        {
          "indexed": false,
          "internalType": "address",
          "name": "newOwner",
          "type": "address"
        }
      ],
      "name": "OwnershipTransferred",
      "type": "event"
    },
    {
      "anonymous": false,
      "inputs": [
        {
          "indexed": false,
          "internalType": "uint256",
          "name": "landId",
          "type": "uint256"
        },
        {
          "indexed": false,
          "internalType": "address",
          "name": "buyer",
          "type": "address"
        },
        {
          "indexed": false,
          "internalType": "uint256",
          "name": "amount",
          "type": "uint256"
        }
      ],
      "name": "PaymentDeposited",
      "type": "event"
    },
    {
      "anonymous": false,
      "inputs": [
        {
          "indexed": false,
          "internalType": "uint256",
          "name": "landId",
          "type": "uint256"
        }
      ],
      "name": "SaleApproved",
      "type": "event"
    },
    {
      "inputs": [
        {
          "internalType": "uint256",
          "name": "_landId",
          "type": "uint256"
        }
      ],
      "name": "approveSale",
      "outputs": [],
      "stateMutability": "nonpayable",
      "type": "function"
    },
    {
      "inputs": [
        {
          "internalType": "uint256",
          "name": "_landId",
          "type": "uint256"
        }
      ],
      "name": "buyLand",
      "outputs": [],
      "stateMutability": "payable",
      "type": "function"
    },
    {
      "inputs": [
        {
          "internalType": "uint256",
          "name": "_landId",
          "type": "uint256"
        }
      ],
      "name": "getLand",
      "outputs": [
        {
          "components": [
            {
              "internalType": "uint256",
              "name": "landId",
              "type": "uint256"
            },
            {
              "internalType": "string",
              "name": "location",
              "type": "string"
            },
            {
              "internalType": "uint256",
              "name": "area",
              "type": "uint256"
            },
            {
              "internalType": "address",
              "name": "owner",
              "type": "address"
            },
            {
              "internalType": "uint256",
              "name": "price",
              "type": "uint256"
            },
            {
              "internalType": "bool",
              "name": "forSale",
              "type": "bool"
            }
          ],
          "internalType": "struct LandSaleEscrow.Land",
          "name": "",
          "type": "tuple"
        }
      ],
      "stateMutability": "view",
      "type": "function"
    },
    {
      "inputs": [
        {
          "internalType": "uint256",
          "name": "_landId",
          "type": "uint256"
        }
      ],
      "name": "getSale",
      "outputs": [
        {
          "components": [
            {
              "internalType": "uint256",
              "name": "landId",
              "type": "uint256"
            },
            {
              "internalType": "address",
              "name": "seller",
              "type": "address"
            },
            {
              "internalType": "address",
              "name": "buyer",
              "type": "address"
            },
            {
              "internalType": "uint256",
              "name": "amountPaid",
              "type": "uint256"
            },
            {
              "internalType": "bool",
              "name": "approved",
              "type": "bool"
            },
            {
              "internalType": "bool",
              "name": "completed",
              "type": "bool"
            }
          ],
          "internalType": "struct LandSaleEscrow.Sale",
          "name": "",
          "type": "tuple"
        }
      ],
      "stateMutability": "view",
      "type": "function"
    },
    {
      "inputs": [],
      "name": "getTransactionCount",
      "outputs": [
        {
          "internalType": "uint256",
          "name": "",
          "type": "uint256"
        }
      ],
      "stateMutability": "view",
      "type": "function"
    },
    {
      "inputs": [],
      "name": "landCounter",
      "outputs": [
        {
          "internalType": "uint256",
          "name": "",
          "type": "uint256"
        }
      ],
      "stateMutability": "view",
      "type": "function"
    },
    {
      "inputs": [
        {
          "internalType": "uint256",
          "name": "",
          "type": "uint256"
        }
      ],
      "name": "lands",
      "outputs": [
        {
          "internalType": "uint256",
          "name": "landId",
          "type": "uint256"
        },
        {
          "internalType": "string",
          "name": "location",
          "type": "string"
        },
        {
          "internalType": "uint256",
          "name": "area",
          "type": "uint256"
        },
        {
          "internalType": "address",
          "name": "owner",
          "type": "address"
        },
        {
          "internalType": "uint256",
          "name": "price",
          "type": "uint256"
        },
        {
          "internalType": "bool",
          "name": "forSale",
          "type": "bool"
        }
      ],
      "stateMutability": "view",
      "type": "function"
    },
    {
      "inputs": [
        {
          "internalType": "uint256",
          "name": "_landId",
          "type": "uint256"
        },
        {
          "internalType": "uint256",
          "name": "_price",
          "type": "uint256"
        }
      ],
      "name": "listLandForSale",
      "outputs": [],
      "stateMutability": "nonpayable",
      "type": "function"
    },
    {
      "inputs": [
        {
          "internalType": "string",
          "name": "_location",
          "type": "string"
        },
        {
          "internalType": "uint256",
          "name": "_area",
          "type": "uint256"
        },
        {
          "internalType": "uint256",
          "name": "_price",
          "type": "uint256"
        }
      ],
      "name": "registerLand",
      "outputs": [],
      "stateMutability": "nonpayable",
      "type": "function"
    },
    {
      "inputs": [],
      "name": "registrar",
      "outputs": [
        {
          "internalType": "address",
          "name": "",
          "type": "address"
        }
      ],
      "stateMutability": "view",
      "type": "function"
    },
    {
      "inputs": [
        {
          "internalType": "uint256",
          "name": "",
          "type": "uint256"
        }
      ],
      "name": "sales",
      "outputs": [
        {
          "internalType": "uint256",
          "name": "landId",
          "type": "uint256"
        },
        {
          "internalType": "address",
          "name": "seller",
          "type": "address"
        },
        {
          "internalType": "address",
          "name": "buyer",
          "type": "address"
        },
        {
          "internalType": "uint256",
          "name": "amountPaid",
          "type": "uint256"
        },
        {
          "internalType": "bool",
          "name": "approved",
          "type": "bool"
        },
        {
          "internalType": "bool",
          "name": "completed",
          "type": "bool"
        }
      ],
      "stateMutability": "view",
      "type": "function"
    },
    {
      "inputs": [],
      "name": "transactionCounter",
      "outputs": [
        {
          "internalType": "uint256",
          "name": "",
          "type": "uint256"
        }
      ],
      "stateMutability": "view",
      "type": "function"
    },
    {
      "inputs": [
        {
          "internalType": "uint256",
          "name": "",
          "type": "uint256"
        }
      ],
      "name": "transactionHistory",
      "outputs": [
        {
          "internalType": "uint256",
          "name": "transactionId",
          "type": "uint256"
        },
        {
          "internalType": "uint256",
          "name": "landId",
          "type": "uint256"
        },
        {
          "internalType": "address",
          "name": "previousOwner",
          "type": "address"
        },
        {
          "internalType": "address",
          "name": "newOwner",
          "type": "address"
        },
        {
          "internalType": "uint256",
          "name": "salePrice",
          "type": "uint256"
        },
        {
          "internalType": "uint256",
          "name": "timestamp",
          "type": "uint256"
        }
      ],
      "stateMutability": "view",
      "type": "function"
    }
  ],
  "bytecode": "0x6080604052348015600f57600080fd5b50336000806101000a81548173ffffffffffffffffffffffffffffffffffffffff021916908373ffffffffffffffffffffffffffffffffffffffff1602179055506120048061005f6000396000f3fe6080604052600436106100c25760003560e01c80639e29ce181161007f578063d8f6d59611610059578063d8f6d59614610265578063e261f1e5146102a2578063f02dd53f146102e4578063fd1a8fef14610321576100c2565b80639e29ce18146101dc578063b5f522f714610207578063ced3955814610249576100c2565b806314a72feb146100c757806314e887e8146100f0578063243e7a871461011b5780632b20e3971461015d5780632e7700f014610188578063562d2543146101b3575b600080fd5b3480156100d357600080fd5b506100ee60048036038101906100e991906112f8565b61034a565b005b3480156100fc57600080fd5b5061010561085b565b6040516101129190611334565b60405180910390f35b34801561012757600080fd5b50610142600480360381019061013d91906112f8565b610861565b60405161015496959493929190611390565b60405180910390f35b34801561016957600080fd5b506101726108ed565b60405161017f91906113f1565b60405180910390f35b34801561019457600080fd5b5061019d610911565b6040516101aa9190611334565b60405180910390f35b3480156101bf57600080fd5b506101da60048036038101906101d59190611552565b61091e565b005b3480156101e857600080fd5b506101f1610a73565b6040516101fe9190611334565b60405180910390f35b34801561021357600080fd5b5061022e600480360381019061022991906112f8565b610a79565b604051610240969594939291906115dc565b60405180910390f35b610263600480360381019061025e91906112f8565b610b0f565b005b34801561027157600080fd5b5061028c600480360381019061028791906112f8565b610d77565b60405161029991906116e5565b60405180910390f35b3480156102ae57600080fd5b506102c960048036038101906102c491906112f8565b610e9a565b6040516102db9695949392919061177f565b60405180910390f35b3480156102f057600080fd5b5061030b600480360381019061030691906112f8565b610f8b565b60405161031891906118ba565b60405180910390f35b34801561032d57600080fd5b50610348600480360381019061034391906118dc565b6110d9565b005b60008054906101000a900473ffffffffffffffffffffffffffffffffffffffff1673ffffffffffffffffffffffffffffffffffffffff163373ffffffffffffffffffffffffffffffffffffffff16146103d8576040517f08c379a00000000000000000000000000000000000000000000000000000000081526004016103cf90611968565b60405180910390fd5b60006004600083815260200190815260200160002090506000600360008481526020019081526020016000209050600073ffffffffffffffffffffffffffffffffffffffff168260020160009054906101000a900473ffffffffffffffffffffffffffffffffffffffff1673ffffffffffffffffffffffffffffffffffffffff1603610499576040517f08c379a0000000000000000000000000000000000000000000000000000000008152600401610490906119d4565b60405180910390fd5b8160040160019054906101000a900460ff16156104eb576040517f08c379a00000000000000000000000000000000000000000000000000000000081526004016104e290611a40565b60405180910390fd5b60018260040160006101000a81548160ff02191690831515021790555060018260040160016101000a81548160ff02191690831515021790555060008160030160009054906101000a900473ffffffffffffffffffffffffffffffffffffffff1690508260020160009054906101000a900473ffffffffffffffffffffffffffffffffffffffff168260030160006101000a81548173ffffffffffffffffffffffffffffffffffffffff021916908373ffffffffffffffffffffffffffffffffffffffff16021790555060008260050160006101000a81548160ff0219169083151502179055508260010160009054906101000a900473ffffffffffffffffffffffffffffffffffffffff1673ffffffffffffffffffffffffffffffffffffffff166108fc84600301549081150290604051600060405180830381858888f19350505050158015610640573d6000803e3d6000fd5b506002600081548092919061065490611a8f565b919050555060056040518060c0016040528060025481526020018681526020018373ffffffffffffffffffffffffffffffffffffffff1681526020018560020160009054906101000a900473ffffffffffffffffffffffffffffffffffffffff1673ffffffffffffffffffffffffffffffffffffffff16815260200185600301548152602001428152509080600181540180825580915050600190039060005260206000209060060201600090919091909150600082015181600001556020820151816001015560408201518160020160006101000a81548173ffffffffffffffffffffffffffffffffffffffff021916908373ffffffffffffffffffffffffffffffffffffffff16021790555060608201518160030160006101000a81548173ffffffffffffffffffffffffffffffffffffffff021916908373ffffffffffffffffffffffffffffffffffffffff1602179055506080820151816004015560a0820151816005015550507fbb04bea84885a72e3891993318adefb442812fa459948e555c4e09692e352e60846040516107ee9190611334565b60405180910390a17f16b85f49bf01212961345d3016c9a531894accf62eb7680f2045d79185cc0ec084828560020160009054906101000a900473ffffffffffffffffffffffffffffffffffffffff1660405161084d93929190611ad7565b60405180910390a150505050565b60025481565b6005818154811061087157600080fd5b90600052602060002090600602016000915090508060000154908060010154908060020160009054906101000a900473ffffffffffffffffffffffffffffffffffffffff16908060030160009054906101000a900473ffffffffffffffffffffffffffffffffffffffff16908060040154908060050154905086565b60008054906101000a900473ffffffffffffffffffffffffffffffffffffffff1681565b6000600580549050905090565b6001600081548092919061093190611a8f565b91905055506040518060c0016040528060015481526020018481526020018381526020013373ffffffffffffffffffffffffffffffffffffffff168152602001828152602001600015158152506003600060015481526020019081526020016000206000820151816000015560208201518160010190816109b29190611d1a565b506040820151816002015560608201518160030160006101000a81548173ffffffffffffffffffffffffffffffffffffffff021916908373ffffffffffffffffffffffffffffffffffffffff1602179055506080820151816004015560a08201518160050160006101000a81548160ff0219169083151502179055509050507f9c4ad74928fec1ee86181680df0e76bf575b79ea2a0347f7ed270884bdd26ad76001543385604051610a6693929190611dec565b60405180910390a1505050565b60015481565b60046020528060005260406000206000915090508060000154908060010160009054906101000a900473ffffffffffffffffffffffffffffffffffffffff16908060020160009054906101000a900473ffffffffffffffffffffffffffffffffffffffff16908060030154908060040160009054906101000a900460ff16908060040160019054906101000a900460ff16905086565b60006003600083815260200190815260200160002090508060050160009054906101000a900460ff16610b77576040517f08c379a0000000000000000000000000000000000000000000000000000000008152600401610b6e90611e76565b60405180910390fd5b80600401543414610bbd576040517f08c379a0000000000000000000000000000000000000000000000000000000008152600401610bb490611ee2565b60405180910390fd5b6040518060c001604052808381526020018260030160009054906101000a900473ffffffffffffffffffffffffffffffffffffffff1673ffffffffffffffffffffffffffffffffffffffff1681526020013373ffffffffffffffffffffffffffffffffffffffff16815260200134815260200160001515815260200160001515815250600460008481526020019081526020016000206000820151816000015560208201518160010160006101000a81548173ffffffffffffffffffffffffffffffffffffffff021916908373ffffffffffffffffffffffffffffffffffffffff16021790555060408201518160020160006101000a81548173ffffffffffffffffffffffffffffffffffffffff021916908373ffffffffffffffffffffffffffffffffffffffff1602179055506060820151816003015560808201518160040160006101000a81548160ff02191690831515021790555060a08201518160040160016101000a81548160ff0219169083151502179055509050507f71284872bb4c088a81295dff2513729babbccfeda38a8d824bb1a73bcaab494e823334604051610d6b93929190611f02565b60405180910390a15050565b610d7f6111fa565b600460008381526020019081526020016000206040518060c0016040529081600082015481526020016001820160009054906101000a900473ffffffffffffffffffffffffffffffffffffffff1673ffffffffffffffffffffffffffffffffffffffff1673ffffffffffffffffffffffffffffffffffffffff1681526020016002820160009054906101000a900473ffffffffffffffffffffffffffffffffffffffff1673ffffffffffffffffffffffffffffffffffffffff1673ffffffffffffffffffffffffffffffffffffffff168152602001600382015481526020016004820160009054906101000a900460ff161515151581526020016004820160019054906101000a900460ff1615151515815250509050919050565b6003602052806000526040600020600091509050806000015490806001018054610ec390611b3d565b80601f0160208091040260200160405190810160405280929190818152602001828054610eef90611b3d565b8015610f3c5780601f10610f1157610100808354040283529160200191610f3c565b820191906000526020600020905b815481529060010190602001808311610f1f57829003601f168201915b5050505050908060020154908060030160009054906101000a900473ffffffffffffffffffffffffffffffffffffffff16908060040154908060050160009054906101000a900460ff16905086565b610f93611260565b600360008381526020019081526020016000206040518060c001604052908160008201548152602001600182018054610fcb90611b3d565b80601f0160208091040260200160405190810160405280929190818152602001828054610ff790611b3d565b80156110445780601f1061101957610100808354040283529160200191611044565b820191906000526020600020905b81548152906001019060200180831161102757829003601f168201915b50505050508152602001600282015481526020016003820160009054906101000a900473ffffffffffffffffffffffffffffffffffffffff1673ffffffffffffffffffffffffffffffffffffffff1673ffffffffffffffffffffffffffffffffffffffff168152602001600482015481526020016005820160009054906101000a900460ff1615151515815250509050919050565b813373ffffffffffffffffffffffffffffffffffffffff166003600083815260200190815260200160002060030160009054906101000a900473ffffffffffffffffffffffffffffffffffffffff1673ffffffffffffffffffffffffffffffffffffffff161461117e576040517f08c379a000000000000000000000000000000000000000000000000000000000815260040161117590611f85565b60405180910390fd5b600060036000858152602001908152602001600020905060018160050160006101000a81548160ff0219169083151502179055508281600401819055507f2f9b23898410304c2b8c29547330c8ef08ad5f7c80b5204df939744931e2752084846040516111ec929190611fa5565b60405180910390a150505050565b6040518060c0016040528060008152602001600073ffffffffffffffffffffffffffffffffffffffff168152602001600073ffffffffffffffffffffffffffffffffffffffff168152602001600081526020016000151581526020016000151581525090565b6040518060c00160405280600081526020016060815260200160008152602001600073ffffffffffffffffffffffffffffffffffffffff168152602001600081526020016000151581525090565b6000604051905090565b600080fd5b600080fd5b6000819050919050565b6112d5816112c2565b81146112e057600080fd5b50565b6000813590506112f2816112cc565b92915050565b60006020828403121561130e5761130d6112b8565b5b600061131c848285016112e3565b91505092915050565b61132e816112c2565b82525050565b60006020820190506113496000830184611325565b92915050565b600073ffffffffffffffffffffffffffffffffffffffff82169050919050565b600061137a8261134f565b9050919050565b61138a8161136f565b82525050565b600060c0820190506113a56000830189611325565b6113b26020830188611325565b6113bf6040830187611381565b6113cc6060830186611381565b6113d96080830185611325565b6113e660a0830184611325565b979650505050505050565b60006020820190506114066000830184611381565b92915050565b600080fd5b600080fd5b6000601f19601f8301169050919050565b7f4e487b7100000000000000000000000000000000000000000000000000000000600052604160045260246000fd5b61145f82611416565b810181811067ffffffffffffffff8211171561147e5761147d611427565b5b80604052505050565b60006114916112ae565b905061149d8282611456565b919050565b600067ffffffffffffffff8211156114bd576114bc611427565b5b6114c682611416565b9050602081019050919050565b82818337600083830152505050565b60006114f56114f0846114a2565b611487565b90508281526020810184848401111561151157611510611411565b5b61151c8482856114d3565b509392505050565b600082601f8301126115395761153861140c565b5b81356115498482602086016114e2565b91505092915050565b60008060006060848603121561156b5761156a6112b8565b5b600084013567ffffffffffffffff811115611589576115886112bd565b5b61159586828701611524565b93505060206115a6868287016112e3565b92505060406115b7868287016112e3565b9150509250925092565b60008115159050919050565b6115d6816115c1565b82525050565b600060c0820190506115f16000830189611325565b6115fe6020830188611381565b61160b6040830187611381565b6116186060830186611325565b61162560808301856115cd565b61163260a08301846115cd565b979650505050505050565b611646816112c2565b82525050565b6116558161136f565b82525050565b611664816115c1565b82525050565b60c082016000820151611680600085018261163d565b506020820151611693602085018261164c565b5060408201516116a6604085018261164c565b5060608201516116b9606085018261163d565b5060808201516116cc608085018261165b565b5060a08201516116df60a085018261165b565b50505050565b600060c0820190506116fa600083018461166a565b92915050565b600081519050919050565b600082825260208201905092915050565b60005b8381101561173a57808201518184015260208101905061171f565b60008484015250505050565b600061175182611700565b61175b818561170b565b935061176b81856020860161171c565b61177481611416565b840191505092915050565b600060c0820190506117946000830189611325565b81810360208301526117a68188611746565b90506117b56040830187611325565b6117c26060830186611381565b6117cf6080830185611325565b6117dc60a08301846115cd565b979650505050505050565b600082825260208201905092915050565b600061180382611700565b61180d81856117e7565b935061181d81856020860161171c565b61182681611416565b840191505092915050565b600060c083016000830151611849600086018261163d565b506020830151848203602086015261186182826117f8565b9150506040830151611876604086018261163d565b506060830151611889606086018261164c565b50608083015161189c608086018261163d565b5060a08301516118af60a086018261165b565b508091505092915050565b600060208201905081810360008301526118d48184611831565b905092915050565b600080604083850312156118f3576118f26112b8565b5b6000611901858286016112e3565b9250506020611912858286016112e3565b9150509250929050565b7f4f6e6c792072656769737472617220616c6c6f77656400000000000000000000600082015250565b600061195260168361170b565b915061195d8261191c565b602082019050919050565b6000602082019050818103600083015261198181611945565b9050919050565b7f4e6f20627579657220666f756e64000000000000000000000000000000000000600082015250565b60006119be600e8361170b565b91506119c982611988565b602082019050919050565b600060208201905081810360008301526119ed816119b1565b9050919050565b7f53616c6520616c726561647920636f6d706c6574656400000000000000000000600082015250565b6000611a2a60168361170b565b9150611a35826119f4565b602082019050919050565b60006020820190508181036000830152611a5981611a1d565b9050919050565b7f4e487b7100000000000000000000000000000000000000000000000000000000600052601160045260246000fd5b6000611a9a826112c2565b91507fffffffffffffffffffffffffffffffffffffffffffffffffffffffffffffffff8203611acc57611acb611a60565b5b600182019050919050565b6000606082019050611aec6000830186611325565b611af96020830185611381565b611b066040830184611381565b949350505050565b7f4e487b7100000000000000000000000000000000000000000000000000000000600052602260045260246000fd5b60006002820490506001821680611b5557607f821691505b602082108103611b6857611b67611b0e565b5b50919050565b60008190508160005260206000209050919050565b60006020601f8301049050919050565b600082821b905092915050565b600060088302611bd07fffffffffffffffffffffffffffffffffffffffffffffffffffffffffffffffff82611b93565b611bda8683611b93565b95508019841693508086168417925050509392505050565b6000819050919050565b6000611c17611c12611c0d846112c2565b611bf2565b6112c2565b9050919050565b6000819050919050565b611c3183611bfc565b611c45611c3d82611c1e565b848454611ba0565b825550505050565b600090565b611c5a611c4d565b611c65818484611c28565b505050565b5b81811015611c8957611c7e600082611c52565b600181019050611c6b565b5050565b601f821115611cce57611c9f81611b6e565b611ca884611b83565b81016020851015611cb7578190505b611ccb611cc385611b83565b830182611c6a565b50505b505050565b600082821c905092915050565b6000611cf160001984600802611cd3565b1980831691505092915050565b6000611d0a8383611ce0565b9150826002028217905092915050565b611d2382611700565b67ffffffffffffffff811115611d3c57611d3b611427565b5b611d468254611b3d565b611d51828285611c8d565b600060209050601f831160018114611d845760008415611d72578287015190505b611d7c8582611cfe565b865550611de4565b601f198416611d9286611b6e565b60005b82811015611dba57848901518255600182019150602085019450602081019050611d95565b86831015611dd75784890151611dd3601f891682611ce0565b8355505b6001600288020188555050505b505050505050565b6000606082019050611e016000830186611325565b611e0e6020830185611381565b8181036040830152611e208184611746565b9050949350505050565b7f4c616e64206e6f7420666f722073616c65000000000000000000000000000000600082015250565b6000611e6060118361170b565b9150611e6b82611e2a565b602082019050919050565b60006020820190508181036000830152611e8f81611e53565b9050919050565b7f496e636f7272656374207061796d656e74000000000000000000000000000000600082015250565b6000611ecc60118361170b565b9150611ed782611e96565b602082019050919050565b60006020820190508181036000830152611efb81611ebf565b9050919050565b6000606082019050611f176000830186611325565b611f246020830185611381565b611f316040830184611325565b949350505050565b7f4e6f74206c616e64206f776e6572000000000000000000000000000000000000600082015250565b6000611f6f600e8361170b565b9150611f7a82611f39565b602082019050919050565b60006020820190508181036000830152611f9e81611f62565b9050919050565b6000604082019050611fba6000830185611325565b611fc76020830184611325565b939250505056fea264697066735822122072385ed4e4fe387b8cf9d42e89982fb3732d3699e29b72ca322675d1362ffc8c64736f6c634300081c0033",
  "linkReferences": {},
  "deployedLinkReferences": {}
}