{
  "_format": "hh-sol-artifact-1",
  "contractName": "LandSaleEscrow",
  "sourceName": "contracts/LandSaleEscrow.sol",
  "abi": [
    {
      "inputs": [],
      "stateMutability": "nonpayable",
      "type": "constructor"
    },
    {
      "anonymous": false,
      "inputs": [
        {
          "indexed": false,
          "internalType": "uint256",
          "name": "landId",
          "type": "uint256"
        }
      ],
      "name": "LandApproved",
      "type": "event"
    },
    {
      "anonymous": false,
      "inputs": [
        {
          "indexed": false,
          "internalType": "uint256",
          "name": "landId",
          "type": "uint256"
        },
        {
          "indexed": false,
          "internalType": "uint256",
          "name": "price",
          "type": "uint256"
        }
      ],
      "name": "LandListed",
      "type": "event"
    },
    {
      "anonymous": false,
      "inputs": [
        {
          "indexed": false,
          "internalType": "uint256",
          "name": "landId",
          "type": "uint256"
        },
        {
          "indexed": false,
          "internalType": "address",
          "name": "owner",
          "type": "address"
        },
        {
          "indexed": false,
          "internalType": "string",
          "name": "location",
          "type": "string"
        }
      ],
      "name": "LandRegistered",
      "type": "event"
    },
    {
      "anonymous": false,
      "inputs": [
        {
          "indexed": false,
          "internalType": "uint256",
          "name": "landId",
          "type": "uint256"
        },
        {
          "indexed": false,
          "internalType": "address",
          "name": "oldOwner",
          "type": "address"
        },
        {
          "indexed": false,
          "internalType": "address",
          "name": "newOwner",
          "type": "address"
        }
      ],
      "name": "OwnershipTransferred",
      "type": "event"
    },
    {
      "anonymous": false,
      "inputs": [
        {
          "indexed": false,
          "internalType": "uint256",
          "name": "landId",
          "type": "uint256"
        }
      ],
      "name": "PaymentApproved",
      "type": "event"
    },
    {
      "anonymous": false,
      "inputs": [
        {
          "indexed": false,
          "internalType": "uint256",
          "name": "landId",
          "type": "uint256"
        },
        {
          "indexed": false,
          "internalType": "address",
          "name": "buyer",
          "type": "address"
        },
        {
          "indexed": false,
          "internalType": "uint256",
          "name": "amount",
          "type": "uint256"
        }
      ],
      "name": "PaymentDeposited",
      "type": "event"
    },
    {
      "anonymous": false,
      "inputs": [
        {
          "indexed": false,
          "internalType": "uint256",
          "name": "landId",
          "type": "uint256"
        },
        {
          "indexed": false,
          "internalType": "uint256",
          "name": "amount",
          "type": "uint256"
        }
      ],
      "name": "SellerPaid",
      "type": "event"
    },
    {
      "inputs": [
        {
          "internalType": "uint256",
          "name": "_landId",
          "type": "uint256"
        }
      ],
      "name": "approveLandRegistration",
      "outputs": [],
      "stateMutability": "nonpayable",
      "type": "function"
    },
    {
      "inputs": [
        {
          "internalType": "uint256",
          "name": "_landId",
          "type": "uint256"
        }
      ],
      "name": "approvePayment",
      "outputs": [],
      "stateMutability": "nonpayable",
      "type": "function"
    },
    {
      "inputs": [
        {
          "internalType": "uint256",
          "name": "_landId",
          "type": "uint256"
        }
      ],
      "name": "buyLand",
      "outputs": [],
      "stateMutability": "payable",
      "type": "function"
    },
    {
      "inputs": [
        {
          "internalType": "uint256",
          "name": "_landId",
          "type": "uint256"
        }
      ],
      "name": "getLand",
      "outputs": [
        {
          "components": [
            {
              "internalType": "uint256",
              "name": "landId",
              "type": "uint256"
            },
            {
              "internalType": "string",
              "name": "location",
              "type": "string"
            },
            {
              "internalType": "uint256",
              "name": "area",
              "type": "uint256"
            },
            {
              "internalType": "address",
              "name": "owner",
              "type": "address"
            },
            {
              "internalType": "uint256",
              "name": "price",
              "type": "uint256"
            },
            {
              "internalType": "bool",
              "name": "registered",
              "type": "bool"
            },
            {
              "internalType": "bool",
              "name": "approved",
              "type": "bool"
            },
            {
              "internalType": "bool",
              "name": "forSale",
              "type": "bool"
            }
          ],
          "internalType": "struct LandSaleEscrow.Land",
          "name": "",
          "type": "tuple"
        }
      ],
      "stateMutability": "view",
      "type": "function"
    },
    {
      "inputs": [
        {
          "internalType": "uint256",
          "name": "_landId",
          "type": "uint256"
        }
      ],
      "name": "getSale",
      "outputs": [
        {
          "components": [
            {
              "internalType": "uint256",
              "name": "landId",
              "type": "uint256"
            },
            {
              "internalType": "address",
              "name": "seller",
              "type": "address"
            },
            {
              "internalType": "address",
              "name": "buyer",
              "type": "address"
            },
            {
              "internalType": "uint256",
              "name": "amountPaid",
              "type": "uint256"
            },
            {
              "internalType": "bool",
              "name": "paymentApproved",
              "type": "bool"
            },
            {
              "internalType": "bool",
              "name": "sellerPaid",
              "type": "bool"
            },
            {
              "internalType": "bool",
              "name": "ownershipTransferred",
              "type": "bool"
            }
          ],
          "internalType": "struct LandSaleEscrow.Sale",
          "name": "",
          "type": "tuple"
        }
      ],
      "stateMutability": "view",
      "type": "function"
    },
    {
      "inputs": [],
      "name": "getTransactionCount",
      "outputs": [
        {
          "internalType": "uint256",
          "name": "",
          "type": "uint256"
        }
      ],
      "stateMutability": "view",
      "type": "function"
    },
    {
      "inputs": [],
      "name": "historyContract",
      "outputs": [
        {
          "internalType": "contract LandHistory",
          "name": "",
          "type": "address"
        }
      ],
      "stateMutability": "view",
      "type": "function"
    },
    {
      "inputs": [],
      "name": "landCounter",
      "outputs": [
        {
          "internalType": "uint256",
          "name": "",
          "type": "uint256"
        }
      ],
      "stateMutability": "view",
      "type": "function"
    },
    {
      "inputs": [
        {
          "internalType": "uint256",
          "name": "",
          "type": "uint256"
        }
      ],
      "name": "lands",
      "outputs": [
        {
          "internalType": "uint256",
          "name": "landId",
          "type": "uint256"
        },
        {
          "internalType": "string",
          "name": "location",
          "type": "string"
        },
        {
          "internalType": "uint256",
          "name": "area",
          "type": "uint256"
        },
        {
          "internalType": "address",
          "name": "owner",
          "type": "address"
        },
        {
          "internalType": "uint256",
          "name": "price",
          "type": "uint256"
        },
        {
          "internalType": "bool",
          "name": "registered",
          "type": "bool"
        },
        {
          "internalType": "bool",
          "name": "approved",
          "type": "bool"
        },
        {
          "internalType": "bool",
          "name": "forSale",
          "type": "bool"
        }
      ],
      "stateMutability": "view",
      "type": "function"
    },
    {
      "inputs": [
        {
          "internalType": "uint256",
          "name": "_landId",
          "type": "uint256"
        },
        {
          "internalType": "uint256",
          "name": "_price",
          "type": "uint256"
        }
      ],
      "name": "listLandForSale",
      "outputs": [],
      "stateMutability": "nonpayable",
      "type": "function"
    },
    {
      "inputs": [
        {
          "internalType": "string",
          "name": "_location",
          "type": "string"
        },
        {
          "internalType": "uint256",
          "name": "_area",
          "type": "uint256"
        },
        {
          "internalType": "uint256",
          "name": "_price",
          "type": "uint256"
        }
      ],
      "name": "registerLand",
      "outputs": [],
      "stateMutability": "nonpayable",
      "type": "function"
    },
    {
      "inputs": [
        {
          "internalType": "bytes32",
          "name": "",
          "type": "bytes32"
        }
      ],
      "name": "registeredLands",
      "outputs": [
        {
          "internalType": "bool",
          "name": "",
          "type": "bool"
        }
      ],
      "stateMutability": "view",
      "type": "function"
    },
    {
      "inputs": [],
      "name": "registrar",
      "outputs": [
        {
          "internalType": "address",
          "name": "",
          "type": "address"
        }
      ],
      "stateMutability": "view",
      "type": "function"
    },
    {
      "inputs": [
        {
          "internalType": "uint256",
          "name": "",
          "type": "uint256"
        }
      ],
      "name": "sales",
      "outputs": [
        {
          "internalType": "uint256",
          "name": "landId",
          "type": "uint256"
        },
        {
          "internalType": "address",
          "name": "seller",
          "type": "address"
        },
        {
          "internalType": "address",
          "name": "buyer",
          "type": "address"
        },
        {
          "internalType": "uint256",
          "name": "amountPaid",
          "type": "uint256"
        },
        {
          "internalType": "bool",
          "name": "paymentApproved",
          "type": "bool"
        },
        {
          "internalType": "bool",
          "name": "sellerPaid",
          "type": "bool"
        },
        {
          "internalType": "bool",
          "name": "ownershipTransferred",
          "type": "bool"
        }
      ],
      "stateMutability": "view",
      "type": "function"
    },
    {
      "inputs": [],
      "name": "transactionCounter",
      "outputs": [
        {
          "internalType": "uint256",
          "name": "",
          "type": "uint256"
        }
      ],
      "stateMutability": "view",
      "type": "function"
    },
    {
      "inputs": [
        {
          "internalType": "uint256",
          "name": "_landId",
          "type": "uint256"
        }
      ],
      "name": "transferOwnership",
      "outputs": [],
      "stateMutability": "nonpayable",
      "type": "function"
    },
    {
      "inputs": [
        {
          "internalType": "uint256",
          "name": "_landId",
          "type": "uint256"
        }
      ],
      "name": "withdrawPayment",
      "outputs": [],
      "stateMutability": "nonpayable",
      "type": "function"
    }
  ],
  "bytecode": "0x6080604052348015600f57600080fd5b50336000806101000a81548173ffffffffffffffffffffffffffffffffffffffff021916908373ffffffffffffffffffffffffffffffffffffffff160217905550604051605a9060ba565b604051809103906000f0801580156075573d6000803e3d6000fd5b50600360006101000a81548173ffffffffffffffffffffffffffffffffffffffff021916908373ffffffffffffffffffffffffffffffffffffffff16021790555060c7565b6106f280612b7a83390190565b612aa4806100d66000396000f3fe6080604052600436106100fe5760003560e01c8063cc15892111610095578063dbd3cd6211610064578063dbd3cd621461032e578063de14c81814610357578063e261f1e514610380578063f02dd53f146103c4578063fd1a8fef14610401576100fe565b8063cc15892114610281578063ced39558146102ac578063d23e8489146102c8578063d8f6d596146102f1576100fe565b8063562d2543116100d1578063562d2543146101ad5780639e29ce18146101d6578063b5f522f714610201578063b726384f14610244576100fe565b806314e887e8146101035780632b20e3971461012e5780632e7700f01461015957806349fa118214610184575b600080fd5b34801561010f57600080fd5b5061011861042a565b60405161012591906118bc565b60405180910390f35b34801561013a57600080fd5b50610143610430565b6040516101509190611918565b60405180910390f35b34801561016557600080fd5b5061016e610454565b60405161017b91906118bc565b60405180910390f35b34801561019057600080fd5b506101ab60048036038101906101a69190611973565b61045e565b005b3480156101b957600080fd5b506101d460048036038101906101cf9190611ae6565b6105b8565b005b3480156101e257600080fd5b506101eb61081d565b6040516101f891906118bc565b60405180910390f35b34801561020d57600080fd5b5061022860048036038101906102239190611973565b610823565b60405161023b9796959493929190611b70565b60405180910390f35b34801561025057600080fd5b5061026b60048036038101906102669190611c15565b6108cc565b6040516102789190611c42565b60405180910390f35b34801561028d57600080fd5b506102966108ec565b6040516102a39190611cbc565b60405180910390f35b6102c660048036038101906102c19190611973565b610912565b005b3480156102d457600080fd5b506102ef60048036038101906102ea9190611973565b610ba3565b005b3480156102fd57600080fd5b5061031860048036038101906103139190611973565b610f59565b6040516103259190611d92565b60405180910390f35b34801561033a57600080fd5b5061035560048036038101906103509190611973565b611097565b005b34801561036357600080fd5b5061037e60048036038101906103799190611973565b6112b0565b005b34801561038c57600080fd5b506103a760048036038101906103a29190611973565b6113a7565b6040516103bb989796959493929190611e2c565b60405180910390f35b3480156103d057600080fd5b506103eb60048036038101906103e69190611973565b6114be565b6040516103f89190611fab565b60405180910390f35b34801561040d57600080fd5b5061042860048036038101906104239190611fcd565b611643565b005b60025481565b60008054906101000a900473ffffffffffffffffffffffffffffffffffffffff1681565b6000600254905090565b60008054906101000a900473ffffffffffffffffffffffffffffffffffffffff1673ffffffffffffffffffffffffffffffffffffffff163373ffffffffffffffffffffffffffffffffffffffff16146104ec576040517f08c379a00000000000000000000000000000000000000000000000000000000081526004016104e390612059565b60405180910390fd5b6005600082815260200190815260200160002060050160009054906101000a900460ff1661054f576040517f08c379a0000000000000000000000000000000000000000000000000000000008152600401610546906120c5565b60405180910390fd5b60016005600083815260200190815260200160002060050160016101000a81548160ff0219169083151502179055507f91ec7a228989c78928a20eb7fb3443491bc7f1432d0d343373e7175fdc99d7e7816040516105ad91906118bc565b60405180910390a150565b60008383336040516020016105cf9392919061218a565b6040516020818303038152906040528051906020012090506004600082815260200190815260200160002060009054906101000a900460ff1615610648576040517f08c379a000000000000000000000000000000000000000000000000000000000815260040161063f9061220f565b60405180910390fd5b6001600081548092919061065b9061225e565b919050555060405180610100016040528060015481526020018581526020018481526020013373ffffffffffffffffffffffffffffffffffffffff168152602001838152602001600115158152602001600015158152602001600015158152506005600060015481526020019081526020016000206000820151816000015560208201518160010190816106ef91906124a8565b506040820151816002015560608201518160030160006101000a81548173ffffffffffffffffffffffffffffffffffffffff021916908373ffffffffffffffffffffffffffffffffffffffff1602179055506080820151816004015560a08201518160050160006101000a81548160ff02191690831515021790555060c08201518160050160016101000a81548160ff02191690831515021790555060e08201518160050160026101000a81548160ff02191690831515021790555090505060016004600083815260200190815260200160002060006101000a81548160ff0219169083151502179055507f9c4ad74928fec1ee86181680df0e76bf575b79ea2a0347f7ed270884bdd26ad7600154338660405161080f9392919061257a565b60405180910390a150505050565b60015481565b60066020528060005260406000206000915090508060000154908060010160009054906101000a900473ffffffffffffffffffffffffffffffffffffffff16908060020160009054906101000a900473ffffffffffffffffffffffffffffffffffffffff16908060030154908060040160009054906101000a900460ff16908060040160019054906101000a900460ff16908060040160029054906101000a900460ff16905087565b60046020528060005260406000206000915054906101000a900460ff1681565b600360009054906101000a900473ffffffffffffffffffffffffffffffffffffffff1681565b60006005600083815260200190815260200160002090508060050160029054906101000a900460ff1661097a576040517f08c379a000000000000000000000000000000000000000000000000000000000815260040161097190612604565b60405180910390fd5b806004015434146109c0576040517f08c379a00000000000000000000000000000000000000000000000000000000081526004016109b790612670565b60405180910390fd5b6040518060e001604052808381526020018260030160009054906101000a900473ffffffffffffffffffffffffffffffffffffffff1673ffffffffffffffffffffffffffffffffffffffff1681526020013373ffffffffffffffffffffffffffffffffffffffff16815260200134815260200160001515815260200160001515815260200160001515815250600660008481526020019081526020016000206000820151816000015560208201518160010160006101000a81548173ffffffffffffffffffffffffffffffffffffffff021916908373ffffffffffffffffffffffffffffffffffffffff16021790555060408201518160020160006101000a81548173ffffffffffffffffffffffffffffffffffffffff021916908373ffffffffffffffffffffffffffffffffffffffff1602179055506060820151816003015560808201518160040160006101000a81548160ff02191690831515021790555060a08201518160040160016101000a81548160ff02191690831515021790555060c08201518160040160026101000a81548160ff0219169083151502179055509050507f71284872bb4c088a81295dff2513729babbccfeda38a8d824bb1a73bcaab494e823334604051610b9793929190612690565b60405180910390a15050565b60008054906101000a900473ffffffffffffffffffffffffffffffffffffffff1673ffffffffffffffffffffffffffffffffffffffff163373ffffffffffffffffffffffffffffffffffffffff1614610c31576040517f08c379a0000000000000000000000000000000000000000000000000000000008152600401610c2890612059565b60405180910390fd5b600060066000838152602001908152602001600020905060006005600084815260200190815260200160002090508160040160009054906101000a900460ff16610cb0576040517f08c379a0000000000000000000000000000000000000000000000000000000008152600401610ca790612713565b60405180910390fd5b8160040160019054906101000a900460ff16610d01576040517f08c379a0000000000000000000000000000000000000000000000000000000008152600401610cf89061277f565b60405180910390fd5b8160040160029054906101000a900460ff1615610d53576040517f08c379a0000000000000000000000000000000000000000000000000000000008152600401610d4a906127eb565b60405180910390fd5b60008160030160009054906101000a900473ffffffffffffffffffffffffffffffffffffffff1690508260020160009054906101000a900473ffffffffffffffffffffffffffffffffffffffff168260030160006101000a81548173ffffffffffffffffffffffffffffffffffffffff021916908373ffffffffffffffffffffffffffffffffffffffff16021790555060008260050160026101000a81548160ff02191690831515021790555060018360040160026101000a81548160ff02191690831515021790555060026000815480929190610e309061225e565b9190505550600360009054906101000a900473ffffffffffffffffffffffffffffffffffffffff1673ffffffffffffffffffffffffffffffffffffffff1663476d462b60025486848760020160009054906101000a900473ffffffffffffffffffffffffffffffffffffffff1688600301546040518663ffffffff1660e01b8152600401610ec295949392919061280b565b600060405180830381600087803b158015610edc57600080fd5b505af1158015610ef0573d6000803e3d6000fd5b505050507f16b85f49bf01212961345d3016c9a531894accf62eb7680f2045d79185cc0ec084828560020160009054906101000a900473ffffffffffffffffffffffffffffffffffffffff16604051610f4b9392919061285e565b60405180910390a150505050565b610f616117d3565b600660008381526020019081526020016000206040518060e0016040529081600082015481526020016001820160009054906101000a900473ffffffffffffffffffffffffffffffffffffffff1673ffffffffffffffffffffffffffffffffffffffff1673ffffffffffffffffffffffffffffffffffffffff1681526020016002820160009054906101000a900473ffffffffffffffffffffffffffffffffffffffff1673ffffffffffffffffffffffffffffffffffffffff1673ffffffffffffffffffffffffffffffffffffffff168152602001600382015481526020016004820160009054906101000a900460ff161515151581526020016004820160019054906101000a900460ff161515151581526020016004820160029054906101000a900460ff1615151515815250509050919050565b60006006600083815260200190815260200160002090508060010160009054906101000a900473ffffffffffffffffffffffffffffffffffffffff1673ffffffffffffffffffffffffffffffffffffffff163373ffffffffffffffffffffffffffffffffffffffff1614611140576040517f08c379a0000000000000000000000000000000000000000000000000000000008152600401611137906128e1565b60405180910390fd5b8060040160009054906101000a900460ff16611191576040517f08c379a000000000000000000000000000000000000000000000000000000000815260040161118890612713565b60405180910390fd5b8060040160019054906101000a900460ff16156111e3576040517f08c379a00000000000000000000000000000000000000000000000000000000081526004016111da9061294d565b60405180910390fd5b60018160040160016101000a81548160ff0219169083151502179055508060010160009054906101000a900473ffffffffffffffffffffffffffffffffffffffff1673ffffffffffffffffffffffffffffffffffffffff166108fc82600301549081150290604051600060405180830381858888f1935050505015801561126e573d6000803e3d6000fd5b507fc90e2b5bf9e462d07d9c1fc5201c35bb5dc9dd94df8124b2a19a8f98d64ccdb18282600301546040516112a492919061296d565b60405180910390a15050565b60008054906101000a900473ffffffffffffffffffffffffffffffffffffffff1673ffffffffffffffffffffffffffffffffffffffff163373ffffffffffffffffffffffffffffffffffffffff161461133e576040517f08c379a000000000000000000000000000000000000000000000000000000000815260040161133590612059565b60405180910390fd5b60016006600083815260200190815260200160002060040160006101000a81548160ff0219169083151502179055507f2c51b4266e228b7f9c2401e482ed194b99ddaeefb4f7fc40677e6ee59838e3598160405161139c91906118bc565b60405180910390a150565b60056020528060005260406000206000915090508060000154908060010180546113d0906122d5565b80601f01602080910402602001604051908101604052809291908181526020018280546113fc906122d5565b80156114495780601f1061141e57610100808354040283529160200191611449565b820191906000526020600020905b81548152906001019060200180831161142c57829003601f168201915b5050505050908060020154908060030160009054906101000a900473ffffffffffffffffffffffffffffffffffffffff16908060040154908060050160009054906101000a900460ff16908060050160019054906101000a900460ff16908060050160029054906101000a900460ff16905088565b6114c6611842565b6005600083815260200190815260200160002060405180610100016040529081600082015481526020016001820180546114ff906122d5565b80601f016020809104026020016040519081016040528092919081815260200182805461152b906122d5565b80156115785780601f1061154d57610100808354040283529160200191611578565b820191906000526020600020905b81548152906001019060200180831161155b57829003601f168201915b50505050508152602001600282015481526020016003820160009054906101000a900473ffffffffffffffffffffffffffffffffffffffff1673ffffffffffffffffffffffffffffffffffffffff1673ffffffffffffffffffffffffffffffffffffffff168152602001600482015481526020016005820160009054906101000a900460ff161515151581526020016005820160019054906101000a900460ff161515151581526020016005820160029054906101000a900460ff1615151515815250509050919050565b813373ffffffffffffffffffffffffffffffffffffffff166005600083815260200190815260200160002060030160009054906101000a900473ffffffffffffffffffffffffffffffffffffffff1673ffffffffffffffffffffffffffffffffffffffff16146116e8576040517f08c379a00000000000000000000000000000000000000000000000000000000081526004016116df906129e2565b60405180910390fd5b6005600084815260200190815260200160002060050160019054906101000a900460ff1661174b576040517f08c379a000000000000000000000000000000000000000000000000000000000815260040161174290612a4e565b60405180910390fd5b60016005600085815260200190815260200160002060050160026101000a81548160ff0219169083151502179055508160056000858152602001908152602001600020600401819055507f2f9b23898410304c2b8c29547330c8ef08ad5f7c80b5204df939744931e2752083836040516117c692919061296d565b60405180910390a1505050565b6040518060e0016040528060008152602001600073ffffffffffffffffffffffffffffffffffffffff168152602001600073ffffffffffffffffffffffffffffffffffffffff168152602001600081526020016000151581526020016000151581526020016000151581525090565b604051806101000160405280600081526020016060815260200160008152602001600073ffffffffffffffffffffffffffffffffffffffff168152602001600081526020016000151581526020016000151581526020016000151581525090565b6000819050919050565b6118b6816118a3565b82525050565b60006020820190506118d160008301846118ad565b92915050565b600073ffffffffffffffffffffffffffffffffffffffff82169050919050565b6000611902826118d7565b9050919050565b611912816118f7565b82525050565b600060208201905061192d6000830184611909565b92915050565b6000604051905090565b600080fd5b600080fd5b611950816118a3565b811461195b57600080fd5b50565b60008135905061196d81611947565b92915050565b6000602082840312156119895761198861193d565b5b60006119978482850161195e565b91505092915050565b600080fd5b600080fd5b6000601f19601f8301169050919050565b7f4e487b7100000000000000000000000000000000000000000000000000000000600052604160045260246000fd5b6119f3826119aa565b810181811067ffffffffffffffff82111715611a1257611a116119bb565b5b80604052505050565b6000611a25611933565b9050611a3182826119ea565b919050565b600067ffffffffffffffff821115611a5157611a506119bb565b5b611a5a826119aa565b9050602081019050919050565b82818337600083830152505050565b6000611a89611a8484611a36565b611a1b565b905082815260208101848484011115611aa557611aa46119a5565b5b611ab0848285611a67565b509392505050565b600082601f830112611acd57611acc6119a0565b5b8135611add848260208601611a76565b91505092915050565b600080600060608486031215611aff57611afe61193d565b5b600084013567ffffffffffffffff811115611b1d57611b1c611942565b5b611b2986828701611ab8565b9350506020611b3a8682870161195e565b9250506040611b4b8682870161195e565b9150509250925092565b60008115159050919050565b611b6a81611b55565b82525050565b600060e082019050611b85600083018a6118ad565b611b926020830189611909565b611b9f6040830188611909565b611bac60608301876118ad565b611bb96080830186611b61565b611bc660a0830185611b61565b611bd360c0830184611b61565b98975050505050505050565b6000819050919050565b611bf281611bdf565b8114611bfd57600080fd5b50565b600081359050611c0f81611be9565b92915050565b600060208284031215611c2b57611c2a61193d565b5b6000611c3984828501611c00565b91505092915050565b6000602082019050611c576000830184611b61565b92915050565b6000819050919050565b6000611c82611c7d611c78846118d7565b611c5d565b6118d7565b9050919050565b6000611c9482611c67565b9050919050565b6000611ca682611c89565b9050919050565b611cb681611c9b565b82525050565b6000602082019050611cd16000830184611cad565b92915050565b611ce0816118a3565b82525050565b611cef816118f7565b82525050565b611cfe81611b55565b82525050565b60e082016000820151611d1a6000850182611cd7565b506020820151611d2d6020850182611ce6565b506040820151611d406040850182611ce6565b506060820151611d536060850182611cd7565b506080820151611d666080850182611cf5565b5060a0820151611d7960a0850182611cf5565b5060c0820151611d8c60c0850182611cf5565b50505050565b600060e082019050611da76000830184611d04565b92915050565b600081519050919050565b600082825260208201905092915050565b60005b83811015611de7578082015181840152602081019050611dcc565b60008484015250505050565b6000611dfe82611dad565b611e088185611db8565b9350611e18818560208601611dc9565b611e21816119aa565b840191505092915050565b600061010082019050611e42600083018b6118ad565b8181036020830152611e54818a611df3565b9050611e6360408301896118ad565b611e706060830188611909565b611e7d60808301876118ad565b611e8a60a0830186611b61565b611e9760c0830185611b61565b611ea460e0830184611b61565b9998505050505050505050565b600082825260208201905092915050565b6000611ecd82611dad565b611ed78185611eb1565b9350611ee7818560208601611dc9565b611ef0816119aa565b840191505092915050565b600061010083016000830151611f146000860182611cd7565b5060208301518482036020860152611f2c8282611ec2565b9150506040830151611f416040860182611cd7565b506060830151611f546060860182611ce6565b506080830151611f676080860182611cd7565b5060a0830151611f7a60a0860182611cf5565b5060c0830151611f8d60c0860182611cf5565b5060e0830151611fa060e0860182611cf5565b508091505092915050565b60006020820190508181036000830152611fc58184611efb565b905092915050565b60008060408385031215611fe457611fe361193d565b5b6000611ff28582860161195e565b92505060206120038582860161195e565b9150509250929050565b7f4f6e6c792072656769737472617220616c6c6f77656400000000000000000000600082015250565b6000612043601683611db8565b915061204e8261200d565b602082019050919050565b6000602082019050818103600083015261207281612036565b9050919050565b7f4c616e64206e6f7420666f756e64000000000000000000000000000000000000600082015250565b60006120af600e83611db8565b91506120ba82612079565b602082019050919050565b600060208201905081810360008301526120de816120a2565b9050919050565b600081905092915050565b60006120fb82611dad565b61210581856120e5565b9350612115818560208601611dc9565b80840191505092915050565b6000819050919050565b61213c612137826118a3565b612121565b82525050565b60008160601b9050919050565b600061215a82612142565b9050919050565b600061216c8261214f565b9050919050565b61218461217f826118f7565b612161565b82525050565b600061219682866120f0565b91506121a2828561212b565b6020820191506121b28284612173565b601482019150819050949350505050565b7f4c616e6420616c72656164792072656769737465726564000000000000000000600082015250565b60006121f9601783611db8565b9150612204826121c3565b602082019050919050565b60006020820190508181036000830152612228816121ec565b9050919050565b7f4e487b7100000000000000000000000000000000000000000000000000000000600052601160045260246000fd5b6000612269826118a3565b91507fffffffffffffffffffffffffffffffffffffffffffffffffffffffffffffffff820361229b5761229a61222f565b5b600182019050919050565b7f4e487b7100000000000000000000000000000000000000000000000000000000600052602260045260246000fd5b600060028204905060018216806122ed57607f821691505b602082108103612300576122ff6122a6565b5b50919050565b60008190508160005260206000209050919050565b60006020601f8301049050919050565b600082821b905092915050565b6000600883026123687fffffffffffffffffffffffffffffffffffffffffffffffffffffffffffffffff8261232b565b612372868361232b565b95508019841693508086168417925050509392505050565b60006123a56123a061239b846118a3565b611c5d565b6118a3565b9050919050565b6000819050919050565b6123bf8361238a565b6123d36123cb826123ac565b848454612338565b825550505050565b600090565b6123e86123db565b6123f38184846123b6565b505050565b5b818110156124175761240c6000826123e0565b6001810190506123f9565b5050565b601f82111561245c5761242d81612306565b6124368461231b565b81016020851015612445578190505b6124596124518561231b565b8301826123f8565b50505b505050565b600082821c905092915050565b600061247f60001984600802612461565b1980831691505092915050565b6000612498838361246e565b9150826002028217905092915050565b6124b182611dad565b67ffffffffffffffff8111156124ca576124c96119bb565b5b6124d482546122d5565b6124df82828561241b565b600060209050601f8311600181146125125760008415612500578287015190505b61250a858261248c565b865550612572565b601f19841661252086612306565b60005b8281101561254857848901518255600182019150602085019450602081019050612523565b868310156125655784890151612561601f89168261246e565b8355505b6001600288020188555050505b505050505050565b600060608201905061258f60008301866118ad565b61259c6020830185611909565b81810360408301526125ae8184611df3565b9050949350505050565b7f4c616e64206e6f7420666f722073616c65000000000000000000000000000000600082015250565b60006125ee601183611db8565b91506125f9826125b8565b602082019050919050565b6000602082019050818103600083015261261d816125e1565b9050919050565b7f496e636f7272656374207061796d656e74000000000000000000000000000000600082015250565b600061265a601183611db8565b915061266582612624565b602082019050919050565b600060208201905081810360008301526126898161264d565b9050919050565b60006060820190506126a560008301866118ad565b6126b26020830185611909565b6126bf60408301846118ad565b949350505050565b7f5061796d656e74206e6f7420617070726f766564000000000000000000000000600082015250565b60006126fd601483611db8565b9150612708826126c7565b602082019050919050565b6000602082019050818103600083015261272c816126f0565b9050919050565b7f53656c6c6572206e6f7420706169640000000000000000000000000000000000600082015250565b6000612769600f83611db8565b915061277482612733565b602082019050919050565b600060208201905081810360008301526127988161275c565b9050919050565b7f416c7265616479207472616e7366657272656400000000000000000000000000600082015250565b60006127d5601383611db8565b91506127e08261279f565b602082019050919050565b60006020820190508181036000830152612804816127c8565b9050919050565b600060a08201905061282060008301886118ad565b61282d60208301876118ad565b61283a6040830186611909565b6128476060830185611909565b61285460808301846118ad565b9695505050505050565b600060608201905061287360008301866118ad565b6128806020830185611909565b61288d6040830184611909565b949350505050565b7f4e6f742073656c6c657200000000000000000000000000000000000000000000600082015250565b60006128cb600a83611db8565b91506128d682612895565b602082019050919050565b600060208201905081810360008301526128fa816128be565b9050919050565b7f416c726561647920706169640000000000000000000000000000000000000000600082015250565b6000612937600c83611db8565b915061294282612901565b602082019050919050565b600060208201905081810360008301526129668161292a565b9050919050565b600060408201905061298260008301856118ad565b61298f60208301846118ad565b9392505050565b7f4e6f74206c616e64206f776e6572000000000000000000000000000000000000600082015250565b60006129cc600e83611db8565b91506129d782612996565b602082019050919050565b600060208201905081810360008301526129fb816129bf565b9050919050565b7f4c616e64206e6f7420617070726f766564000000000000000000000000000000600082015250565b6000612a38601183611db8565b9150612a4382612a02565b602082019050919050565b60006020820190508181036000830152612a6781612a2b565b905091905056fea264697066735822122093600e1838ac0313d3e295f892502e220caa666c04b4b4f49ab5fff38a68c56e64736f6c634300081c00336080604052348015600f57600080fd5b506106d38061001f6000396000f3fe608060405234801561001057600080fd5b506004361061004c5760003560e01c806303e9e609146100515780633446106714610086578063476d462b146100bb578063ca267f28146100d7575b600080fd5b61006b60048036038101906100669190610489565b6100f5565b60405161007d96959493929190610506565b60405180910390f35b6100a0600480360381019061009b9190610489565b610236565b6040516100b296959493929190610506565b60405180910390f35b6100d560048036038101906100d09190610593565b6102c2565b005b6100df610442565b6040516100ec919061060e565b60405180910390f35b600080600080600080600080888154811061011357610112610629565b5b90600052602060002090600602016040518060c001604052908160008201548152602001600182015481526020016002820160009054906101000a900473ffffffffffffffffffffffffffffffffffffffff1673ffffffffffffffffffffffffffffffffffffffff1673ffffffffffffffffffffffffffffffffffffffff1681526020016003820160009054906101000a900473ffffffffffffffffffffffffffffffffffffffff1673ffffffffffffffffffffffffffffffffffffffff1673ffffffffffffffffffffffffffffffffffffffff168152602001600482015481526020016005820154815250509050806000015181602001518260400151836060015184608001518560a001519650965096509650965096505091939550919395565b6000818154811061024657600080fd5b90600052602060002090600602016000915090508060000154908060010154908060020160009054906101000a900473ffffffffffffffffffffffffffffffffffffffff16908060030160009054906101000a900473ffffffffffffffffffffffffffffffffffffffff16908060040154908060050154905086565b60006040518060c001604052808781526020018681526020018573ffffffffffffffffffffffffffffffffffffffff1681526020018473ffffffffffffffffffffffffffffffffffffffff168152602001838152602001428152509080600181540180825580915050600190039060005260206000209060060201600090919091909150600082015181600001556020820151816001015560408201518160020160006101000a81548173ffffffffffffffffffffffffffffffffffffffff021916908373ffffffffffffffffffffffffffffffffffffffff16021790555060608201518160030160006101000a81548173ffffffffffffffffffffffffffffffffffffffff021916908373ffffffffffffffffffffffffffffffffffffffff1602179055506080820151816004015560a0820151816005015550507fdbf05490abde73d32ff821ff848a6a7c72c8e6143886281cc66ab3118244cc5f858585856040516104339493929190610658565b60405180910390a15050505050565b60008080549050905090565b600080fd5b6000819050919050565b61046681610453565b811461047157600080fd5b50565b6000813590506104838161045d565b92915050565b60006020828403121561049f5761049e61044e565b5b60006104ad84828501610474565b91505092915050565b6104bf81610453565b82525050565b600073ffffffffffffffffffffffffffffffffffffffff82169050919050565b60006104f0826104c5565b9050919050565b610500816104e5565b82525050565b600060c08201905061051b60008301896104b6565b61052860208301886104b6565b61053560408301876104f7565b61054260608301866104f7565b61054f60808301856104b6565b61055c60a08301846104b6565b979650505050505050565b610570816104e5565b811461057b57600080fd5b50565b60008135905061058d81610567565b92915050565b600080600080600060a086880312156105af576105ae61044e565b5b60006105bd88828901610474565b95505060206105ce88828901610474565b94505060406105df8882890161057e565b93505060606105f08882890161057e565b925050608061060188828901610474565b9150509295509295909350565b600060208201905061062360008301846104b6565b92915050565b7f4e487b7100000000000000000000000000000000000000000000000000000000600052603260045260246000fd5b600060808201905061066d60008301876104b6565b61067a60208301866104b6565b61068760408301856104f7565b61069460608301846104f7565b9594505050505056fea26469706673582212201d9df512bbb03e2e0aa06eaecffebd74f9ab3f82cdcfbab0bc4f203c4a2a1ba064736f6c634300081c0033",
  "linkReferences": {},
  "deployedLinkReferences": {}
}